:100000008DC0A7C0A6C0A5C0A4C0A3C00EC3A1C078
:10001000A0C09FC09EC01AC59CC09BC09AC099C07A
:1000200098C000407A10F35A00A0724E18090010D0
:10003000A5D4E80000E87648170000E40B5402005D
:1000400000CA9A3B000000E1F50500008096980088
:10005000000040420F000000A086010000001027B1
:1000600000000000E8030000000064000000000041
:100070000A00000000000100000000002C76D88873
:10008000DC674F0823DFC1DFAE59E1B1B796E5E386
:10009000E453C63AE651997696E8E6C28426EB899F
:1000A0008C9B62ED407C6FFCEFBC9C9F40F2BAA53C
:1000B0006FA5F490055A2AF75C936B6CF9676DC1D4
:1000C0001BFCE0E40D47FEF520E6B500D0ED902ED8
:1000D0000300943577050080841E080000204E0A36
:1000E000000000C80C333333330F986E1283114174
:1000F000EF8D2114893BE65516CFFEE6DB18D1843F
:100100004B381BF77C1D901DA4BBE4242032847265
:100110005E228100C9F124ECA1E53D2711241FBE18
:10012000CFE5D2E0DEBFCDBF11E0A0E6B0E0ECEB62
:10013000F6E102C005900D92A237B107D9F721E090
:10014000A2E7B1E001C01D92AB39B207E1F755D586
:10015000B3CA56CFBA9AC298D09AD8988FB58FBDE5
:100160008EB588608EBD8EB585608EBD84EF90E0C3
:100170009BBD8ABD80B7816080BF83B7886083BF25
:1001800083B7816083BF08958F929F92AF92BF9291
:10019000FF920F931F93CF93DF9300D000D0CDB782
:1001A000DEB781E08093940180937201619A13E03D
:1001B00004E082E0F82E8091720181110EC00F9050
:1001C0000F900F900F90DF91CF911F910F91FF90A3
:1001D000BF90AF909F908F90089580907301909002
:1001E0007401A0907501B0907601FDD480919701C3
:1001F000909198019C01990F440B550B29833A83E8
:100200004B835C83CA01B901F7D521EE3AE744E993
:100210005EE369837A838B839C8369817A818B8196
:100220009C8176D6462F572FBC0149835A836B8316
:100230007C839A01AC01B901D6D6882309F44FC05A
:100240008092730190927401A0927501B092760130
:10025000FED280E404D38CEC90E004D386E4FFD299
:1002600080919701909198019C01990F440B550B37
:1002700029833A834B835C83CA01B901BDD521EE42
:100280003AE744E95EE369837A838B839C836981DF
:100290007A818B819C813CD669837A838B839C8312
:1002A00069817A818B819C8138D383ED90E0DAD2A9
:1002B0008FE4D5D28091720190E018D384ED90E361
:1002C0000197F1F780917201823009F48FC0A0F498
:1002D000811124C0C2988EB58C7F8EBD6CCF898170
:1002E0009A81AB81BC818093730190937401A09338
:1002F0007501B0937601ACCF833009F4D2C084305D
:1003000009F42CC1C29810927201109279011092D6
:100310007A0110927B0110927C01DDCF80919501D2
:1003200090E067E170E08BD6FC01E059FF4F8189D6
:10033000282F30E050E040E029833A834B835C83F0
:10034000CA01B90159D523E333E343E250E4698399
:100350007A838B839C8369817A818B819C81D8D5B8
:1003600069837A838B839C8369817A818B819C8169
:1003700015D566BF80B7806C80BF80907301909068
:100380007401A0907501B09076018091950190E084
:1003900067E170E054D6FC01E059FF4F8289282FB5
:1003A00030E050E040E029833A834B835C83CA010C
:1003B000B90122D5A501940169837A838B839C833B
:1003C00069817A818B819C81E5D418160CF4F3CE77
:1003D000F09272011092790110927A0110927B01D1
:1003E00010927C0180B78F7380BFE5CE809073013F
:1003F00090907401A0907501B09076018091950164
:1004000090E067E170E01BD6FC01E059FF4F828964
:10041000282F30E050E040E029833A834B835C830F
:10042000CA01B901E9D4A501940169837A838B8358
:100430009C8369817A818B819C8166D518167CF5B5
:10044000C29A80907D0190907E01A0907F01B09033
:1004500080018091950190E067E170E0F0D5FC01AA
:10046000E059FF4F8389282F30E050E040E0298396
:100470003A834B835C83CA01B901BED4A5019401C0
:1004800069837A838B839C8369817A818B819C8148
:1004900081D418160CF48FCE109372018CCEC298B2
:1004A000D0CF8091950190E067E170E0C8D5FC0164
:1004B000E059FF4F8489282F30E050E040E0298345
:1004C0003A834B835C83CA01B90196D423E333E3B7
:1004D00043E250E469837A838B839C8369817A81C8
:1004E0008B819C8115D569837A838B839C836981F9
:1004F0007A818B819C8152D466BF80B7806C80BF2B
:100500008090730190907401A0907501B090760175
:100510008091950190E067E170E091D5FC01E05990
:10052000FF4F8589282F30E050E040E029833A834F
:100530004B835C83CA01B9015FD4A501940169832F
:100540007A838B839C8369817A818B819C8122D47D
:1005500018160CF430CE009372013CCF80907301DA
:1005600090907401A0907501B090760180919501F2
:1005700090E067E170E063D5FC01E059FF4F8589A9
:10058000282F30E050E040E029833A834B835C839E
:10059000CA01B90131D4A501940169837A838B839F
:1005A0009C8369817A818B819C81AED418167CF5FD
:1005B000C29A80907D0190907E01A0907F01B090C2
:1005C00080018091950190E067E170E038D5FC01F1
:1005D000E059FF4F8689282F30E050E040E0298322
:1005E0003A834B835C83CA01B90106D4A501940107
:1005F00069837A838B839C8369817A818B819C81D7
:10060000C9D318160CF467CE1092720163CEC2984B
:10061000D0CFD89A88EB9BE029E130E0F9013197FF
:10062000F1F70197D9F7D89808951F920F920FB656
:100630000F9211242F933F934F935F936F937F9368
:100640008F939F93AF93BF93EF93FF93CF93DF93DA
:1006500000D000D0CDB7DEB78091790190917A01BA
:10066000A0917B01B0917C010196A11DB11D8093E9
:10067000790190937A01A0937B01B0937C018091E2
:10068000790190917A01A0917B01B0917C018983DD
:100690009A83AB83BC83BC01CD01AED320E030E0B4
:1006A00040E85EE369837A838B839C8369817A81E6
:1006B0008B819C812DD4462F572FBC0140937D0107
:1006C00050937E0160937F01709380010F900F9093
:1006D0000F900F90DF91CF91FF91EF91BF91AF916C
:1006E0009F918F917F916F915F914F913F912F914A
:1006F0000F900FBE0F901F9018958AB38C6F8ABB16
:100700008BB383708BBB88EE93E00197F1F7E4E63F
:10071000F0E061E070E044EF51E01BBA90E080E06F
:10072000208130E0082E02C0359527950A94E2F723
:1007300020FF0CC02BB3DC01A05ABF4F3C91DB0162
:1007400001C0AA0F3A95EAF72A2B2BBB01968430F9
:10075000910531F7CA010197F1F7DB9ACA010197B8
:10076000F1F7DB98CA010197F1F7319680E0E037A5
:10077000F80799F60895CF93DF93D62F982F929587
:100780009F70C82FCF708BB38F708BBB30E020E091
:10079000892F90E061E070E0AC01022E02C0559517
:1007A00047950A94E2F740FF0CC04BB3F901E05AB9
:1007B000FF4F5081FB0101C0EE0F5A95EAF74E2B17
:1007C0004BBB2F5F3F4F2430310531F788EC90E071
:1007D000D9D1D11101C0DA9ADB9A88EC90E0D2D15C
:1007E000DB98D11101C0DA988BB38F708BBB30E0EE
:1007F00020E08C2F90E061E070E0AC01022E02C09E
:10080000559547950A94E2F740FF0CC04BB3F901A8
:10081000E05AFF4F5081FB0101C0EE0F5A95EAF7F5
:100820004E0F4BBB2F5F3F4F2430310531F7D111B5
:1008300001C0DA9ADB9A88EC90E0A4D1DB98D11160
:1008400001C0DA9888EC90E0DF91CF919BC161E024
:1008500081E091DF84EC99E00197F1F7089561E080
:10086000806889CF0F931F93CF93DF93EC0109909A
:100870000020E9F72197C81BD82F8C01802F8D1BF2
:100880008C1728F0DF91CF911F910F91089560E0B0
:10089000F80181918F016FDFF1CF0F931F93CF93F9
:1008A000DF938C01D62FC72F80E0D9DFC801DADFB4
:1008B00080E4D5DF8D2F9C2FDF91CF911F910F9179
:1008C000D1CFCF93DF93D82FC92F86E4C8DF8D2FE8
:1008D0009C2FDF91CF91C6CFCF93C3E28111C0E3AC
:1008E0008FE4BDDF8C2F90E0CF91BCCFCF93DF930F
:1008F00000D000D00F92CDB7DEB74AE0BE016F5FE7
:100900007F4F31D4CE010196ADDF0F900F900F9045
:100910000F900F90DF91CF9108950F931F93CF9376
:10092000DF93CDB7DEB729970FB6F894DEBF0FBEC1
:10093000CDBF8E010F5F1F4F22E045E06E837F83A6
:10094000888799876E817F8188859985E0D3C801E2
:1009500089DF29960FB6F894DEBF0FBECDBFDF91B9
:10096000CF911F910F910895B998C19AB898C09AE4
:10097000D09AD898C2DEEEDBD1982EC14F925F920A
:100980006F927F928F929F92AF92BF92CF92DF929F
:10099000EF92FF920F931F93CF93DF93CDB7DEB704
:1009A00028970FB6F894DEBF0FBECDBF6D837E8350
:1009B0008F83988729013A01E982FA820B831C838D
:1009C0008A2C9B2C56018D819E81AF81B88584191C
:1009D0009509A609B7098D839E83AF83B8878B8D50
:1009E0009C8DAD8DBE8D9C01AD01281939094A0938
:1009F0005B096D817E818F81988532D329813A810F
:100A00004B815C81241935094609570942D3DA0123
:100A1000C901880D991DAA1DBB1DBC01CD012896D9
:100A20000FB6F894DEBF0FBECDBFDF91CF911F91FF
:100A30000F91FF90EF90DF90CF90BF90AF909F907D
:100A40008F907F906F905F904F9008951F921FB688
:100A50001F9211242F933F938F939F93AF93BF9334
:100A60008091810190918201A0918301B0918401D4
:100A70003091890120E3230F2D3750F54096A11DB9
:100A8000B11D209389018093810190938201A093ED
:100A90008301B09384018091850190918601A0919A
:100AA0008701B09188010196A11DB11D8093850138
:100AB00090938601A0938701B0938801BF91AF9175
:100AC0009F918F913F912F911F901FBE1F9018955E
:100AD00023EB230F4196A11DB11DD3CFCF93DF93FD
:100AE00000D000D0CDB7DEB78FB7F8942091810148
:100AF00030918201409183015091840129833A838E
:100B00004B835C838FBF69817A818B819C810F903D
:100B10000F900F900F90DF91CF910895CF93DF93B7
:100B200000D000D0CDB7DEB73FB7F89480918501F3
:100B300090918601A0918701B091880122B708B6F3
:100B400000FE05C02F3F19F00196A11DB11D3FBF4A
:100B5000BA2FA92F982F8827820F911DA11DB11D93
:100B60009C01AD0166E0220F331F441F551F6A959B
:100B7000D1F7CA01B9010F900F900F900F90DF913C
:100B8000CF9108958A31910538F0469796958795CB
:100B9000969587950197F1F70895789480B78260CC
:100BA00080BF80B7816080BF83B7826083BF83B717
:100BB000816083BF89B7816089BF1EBC8EB58260AA
:100BC0008EBD8EB581608EBD8FB581608FBD329A2E
:100BD000319A309A379A089586B1876086B9379AE4
:100BE000389A78940895369A3699FECF84B18093D6
:100BF000970185B180939801089581E080938A01DF
:100C00001092930110929501109290018093960199
:100C100080938F01A9DE8CE7E82E82E9F82EC9E1E6
:100C2000D0E011E094ECC92E99E0D92E8091960184
:100C3000882361F00CDE69ED70E08AEE90E02DDE35
:100C4000B19BFECFB09BFCCF1092960180918A01A0
:100C50008823F9F0B19908C0C7010197F1F7109204
:100C60008A0110929301E2CFB0990FC0C70101979A
:100C7000F1F710938A01109293011093960169ED98
:100C800070E08BEF90E009DED1CFC6010197F1F75C
:100C9000CDCF80918F018823C9F06CE071E08DE1A8
:100CA00091E0FBDD80EE9EE2FE013197F1F70197C6
:100CB000D9F780E4D4DD8091950190E067E170E0A0
:100CC000BED180599F4FCEDD10928F01B19947C0A0
:100CD000C7010197F1F76EE271E08FE391E0DDDD8E
:100CE00080E197E2FE013197F1F70197D9F7809102
:100CF000950190E067E170E0A2D16CE071E080596D
:100D00009F4FCBDD80E49FE1FE013197F1F7019722
:100D1000D9F76CE071E080E591E0BFDD88E293E215
:100D2000FE013197F1F70197D9F7109293011093D3
:100D30008A011093960110938F01C29A25DA1092BE
:100D400095016CE071E081E691E0A7DD80E29EE430
:100D5000FE013197F1F70197D9F75BDC67CFB099C6
:100D600065CFC7010197F1F780919501833070F04D
:100D70001092950180E473DD8091950190E067E128
:100D800070E05DD180599F4F6DDD50CF8F5F8093B4
:100D90009501F0CF6CD008F481E0089594D088F0EC
:100DA0009F5790F0B92F9927B751A0F0D1F0660F57
:100DB000771F881F991F1AF0BA95C9F712C0B13072
:100DC00081F09BD0B1E0089598C0672F782F8827D5
:100DD000B85F39F0B93FCCF3869577956795B395B1
:100DE000D9F73EF490958095709561957F4F8F4F20
:100DF0009F4F0895E89409C097FB3EF49095809525
:100E0000709561957F4F8F4F9F4F9923A9F0F92FD0
:100E100096E9BB279395F695879577956795B7954E
:100E2000F111F8CFFAF4BB0F11F460FF1BC06F5F34
:100E30007F4F8F4F9F4F16C0882311F096E911C046
:100E4000772321F09EE8872F762F05C0662371F067
:100E500096E8862F70E060E02AF09A95660F771F7B
:100E6000881FDAF7880F9695879597F90895990F57
:100E70000008550FAA0BE0E8FEEF16161706E80764
:100E8000F907C0F012161306E407F50798F0621B85
:100E9000730B840B950B39F40A2661F0232B242B5A
:100EA000252B21F408950A2609F4A140A6958FEF79
:100EB000811D811D089557FD9058440F551F59F00D
:100EC0005F3F71F04795880F97FB991F61F09F3F37
:100ED00079F087950895121613061406551FF2CF60
:100EE0004695F1DF08C0161617061806991FF1CFB0
:100EF00086957105610508940895E894BB276627D7
:100F00007727CB0197F90895B2DF08F48FEF0895A2
:100F10000AD084C075D028F07AD018F0952309F053
:100F200066C06BC0EBCFC7DFA8F39923D9F3552375
:100F3000C9F3950F50E0551FAA27EE27FF27BB27BF
:100F400000240894679520F4E20FF31FB41F0A1ED3
:100F5000220F331F441FAA1F6695A9F7779530F417
:100F6000F30FB41F0A1E121E08F46395330F441FBB
:100F7000AA1F221F769599F7879520F4B40F0A1EB1
:100F8000121E631F440FAA1F221F331F8695A9F745
:100F9000862F712D602D11249F5750408AF0E1F06B
:100FA00088234AF0EE0FFF1FBB1F661F771F881FA5
:100FB00091505040A9F79E3F510570F018C09ECF48
:100FC0005F3FECF3983EDCF3869577956795B79590
:100FD000F795E7959F5FC1F7FE2B880F911D9695BA
:100FE000879597F9089543DF880B990B089597F932
:100FF0009F6780E870E060E008959FEF80EC0895BF
:1010000000240A94161617061806090608950024E7
:101010000A9412161306140605060895092E039461
:10102000000C11F4882352F0BB0F40F4BF2B11F4D5
:1010300060FF04C06F5F7F4F8F4F9F4F0895002464
:10104000552704C0080E591F880F991F009729F0D3
:1010500076956795B8F37105B9F7802D952F0895AA
:10106000EE27FF27AA27BB2708C0A20FB31FE41F44
:10107000F51F220F331F441F551F969587957795AF
:10108000679598F37040A9F7009799F7BD01CF01D4
:101090000895052E97FB16F400940FD057FD05D048
:1010A00014D007FC02D046F408C050954095309506
:1010B00021953F4F4F4F5F4F0895909580957095C4
:1010C00061957F4F8F4F9F4F0895A1E21A2EAA1B63
:1010D000BB1BFD010DC0AA1FBB1FEE1FFF1FA217E8
:1010E000B307E407F50720F0A21BB30BE40BF50BE5
:1010F000661F771F881F991F1A9469F7609570956E
:10110000809590959B01AC01BD01CF010895EF92B0
:101110000F931F93CF93DF9300D000D00F92CDB7E2
:10112000DEB7322F0D8354E047FD54E1242F27FD15
:101130002195E52E032F4D81512F69837A838B836F
:101140009C8369817A818B819C8130D08D81912FA4
:101150000F900F900F900F900F90DF91CF911F91F4
:101160000F91EF900895BB274A3031F4992322F470
:10117000BDE2909581959F4F01C0BB27FB0155278C
:10118000AA27880F991FAA1FA41710F0A41B8395E4
:101190005051B9F7A05DAA3308F0A95DA19300975B
:1011A00079F7B111B1931192CB0176C26F927F9210
:1011B0009F92AF92BF92CF92DF92EF92FF920F93E6
:1011C0001F93CF93DF93CDB7DEB72D970FB6F8946B
:1011D000DEBF0FBECDBF6A01122FB02EFBE36F2E14
:1011E000601608F40BE3FF24F394F00E0F2D27E0B4
:1011F000AE014F5F5F4F6A877B878C879D876A85CB
:101200007B858C859D8570D1AC01A9808A2D8970E4
:101210003DE2813039F03BE2E1FC04C03E2D31700B
:10122000E0FC30E20E2D0071EA2DE870A3FE59C0FB
:1012300083E0311184E08117A8F5181B002309F41D
:101240003FC0332319F0F60131936F01F601339655
:10125000E2FE3BC08EE4D6018C9391E411969C9300
:10126000119712968C93812F9E2F2F2F30E2811190
:1012700031C0E10FF11D10828EEF9FEF2D960FB65A
:10128000F894DEBF0FBECDBFDF91CF911F910F91BC
:10129000FF90EF90DF90CF90BF90AF909F907F90A6
:1012A0006F90089510E0CACFE92FF22F419381503B
:1012B0009E2F2F2F8111F8CFC10ED11C10E0C1CF6E
:1012C000812F9C2D2D2D40E2F5CF8EE6D6018C93FB
:1012D00091E6C4CFA92FB22F3D9381509A2F2B2F87
:1012E000C6CF2A2D2470A2FE47C083E0311184E0CE
:1012F000811710F4E12FE81B002349F1332319F083
:10130000D6013D936D01C6010396E2FE25C029E496
:10131000D6012C932EE411962C93119726E4129665
:101320002C932E2F382F492F50E221111EC0E80F89
:10133000F92FF11DA0CFA92FB22F4D9381509A2FD5
:101340002B2F8111F8CFCE0ED11CE0E0D7CF8E2FFE
:101350009C2D2D2D40E2F5CF29E6D6012C932EE6CB
:1013600011962C93119726E6DACFA32FB42F5D9315
:1013700021503A2F4B2FD9CFBA0157FF02C070E04E
:1013800060E0E1E0F0E0311102C0F0E0E0E0CB012C
:101390000196E80FF91F8B2D90E0DC011196B1103A
:1013A00002C0B0E0A0E0EA0FFB1F1E171F0619F0F5
:1013B00014F0212F2E1B011194C0D601E22FF0E270
:1013C000E3FE51C0332329F0F60131936F0101117F
:1013D00008C0F601322FA0E331114BC0C20ED11C60
:1013E00020E00F2D040F3A81FA2DF071BF2EA4FEDC
:1013F00003C0313309F401501016F4F5093008F038
:1014000008E0DB017A01E01AF10800271127081B28
:10141000190BEEE29E2E4A175B0784F1EA16FB06D3
:101420006CF5FA01EA1BFB0B66246394712C6C0EBD
:101430007D1EE60DF71DA18011973601EFEF6E1AA4
:101440007E0AA017B107ECF0F601A082AF3FBA0701
:1014500031F43601E2E06E0E711CF60191826301F7
:10146000DACFFD93E150E111FCCFC20ED11C20E098
:10147000A9CFA1933150B0CF01E0C3CFE0E3AE2EAE
:10148000DBCF80959095861797070CF5861B970BF9
:10149000019661507109860F971F4817590741F44B
:1014A000363320F4353321F4B11002C081E3A82E85
:1014B000D601AC92822F962D372D40E281110AC0C1
:1014C000F301E20FF11D108290E080E0D7CE90E0B2
:1014D00080E0DFCFA92FB32F4D9381509A2F3B2F60
:1014E000EDCF311171CF7DCF283008F027E03327C1
:1014F000DA01990F311D87FD916000966105710534
:1015000039F432602E5F3D9330E32A95E1F7089578
:101510009F3F30F080387105610509F03C5F3C5F0A
:101520003D93913008F08068911DDF93CF931F9316
:101530000F93FF92EF92192F987F9695E92F96952A
:101540009695E90FFF27E458FF4F99273327EE249C
:10155000FF24A701E70105900894079428F4360FAB
:10156000E71EF81E491F511D660F771F881F991F20
:101570000694A1F70590079428F4E70EF81E491F7A
:10158000561FC11D770F881F991F661F0694A1F76C
:101590000590079428F4F80E491F561FC71FD11D48
:1015A000880F991F661F771F0694A1F7059007946F
:1015B00020F4490F561FC71FD81F990F661F771FAA
:1015C000881F0694A9F784911095177041F0D6955D
:1015D000C79557954795F794E7941A95C1F7E2E2B6
:1015E000F0E068941590159135916591959105906D
:1015F0007FE27395E118F10A430B560BC90BD00932
:10160000C0F7E10CF11E431F561FC91FD01D7EF409
:10161000703311F48A95E6CFE894015030F0080F4A
:101620000AF40027021708F4202F2395022F7A339B
:1016300028F079E37D932A95E9F710C07D932A95E8
:1016400089F6069497956795379517951794E1183D
:10165000F10A430B560BC90BD00998F023957E91E4
:1016600073957A3308F070E37C932013B8F77E917A
:1016700070617D9330F0839571E37D9370E32A95DB
:10168000E1F71124EF90FF900F911F91CF91DF911F
:10169000992787FD90950895DC01FC01672F7191D2
:1016A0007723E1F7329704C07C916D937083629148
:0C16B000AE17BF07C8F30895F894FFCFF1
:1016BC0004050607030303020208000C00010006E0
:1016CC004F6C272066617368696F6E6564203A29D8
:1016DC00004B8C2D7DCD142020202050726F66691C
:1016EC006C652032202020004B8C2D7DCD142020C9
:1016FC00202050726F66696C652033202020004BCF
:10170C008C2D7DCD142020202050726F66696C6565
:10171C002034202020004B8C2D7DCD1454656D7011
:10172C003A20006043202020002020707573682030
:10173C00746F207374617274200020202020576510
:10174C006C636F6D6520202020200020202020203D
:10175C00506C656173652020202020002020202003
:10176C002020202020202020202020200053656CC9
:10177C0065637420616E206F7074696F6E00202039
:10178C00202020202077617320202020202000534F
:10179C00656C65637465642070726F66696C650056
:1017AC0020205374617274696E67204E6F7720200D
:1017BC000020202020416C6C20446F6E652020207E
:0217CC002000FB
:00000001FF
